:020000040000FA
:0400000000004D2887
:080008008B13FD00030EFE0046
:100010000A0EFF000B1928207F0E8A007E0E830037
:10002000FD0E7D0E8B1709000313831606309F000B
:100030000030850000308600811281110115811485
:100040000110031383128B168B173C3081000800BC
:10005000051C2B283528851D2E283A28051D3128FA
:100060003F28851C34284428352808308500763000
:1000700086004928043085005C308600492802301B
:1000800085003830860049280130850077308600A9
:0E00900049280B113C308100080014204E2836
:02400E00B33FBE
:00000001FF
