:020000040000FA
:04000000000049288B
:0800080030148B13FD00030E00
:10001000FE000A0EFF000B192C207F0E8A007E0EB8
:100020008300FD0E7D0E8B1730100900031383161D
:100030009F111F119F101F1007140030860081129E
:100040008111011581140110031383121F148B16E3
:100050008B173D30810008009F121F129F111F1542
:100060001F1930281E08A0009F121F129F151F1570
:100070001F1938281E08A1000B113D30810008000F
:10008000071C43284628200886000800210886000F
:080090000800162040204A2858
:02400E00B33FBE
:00000001FF
